:100000000C942A000C943C000C943C000C943C0092
:100010000C943C000C943C000C943C000C943C0070
:100020000C943C000C943C000C943C000C943E005E
:100030000C9465000C943C000C943C000C943C0027
:100040000C943C000C943C000C943C000C943C0040
:100050000C943C0011241FBECFE5D4E0DEBFCDBF21
:1000600010E0A0E6B0E001C01D92A53EB107E1F7A7
:100070000E94B7000C94EC000C9400001F920F92A9
:100080000FB60F9211248F939F93EF93FF938BB131
:100090009CB1E091E200EF5FEF738091E300E8171D
:1000A00031F0E093E200F0E0E056FF4F9083809162
:1000B000E40082608093E400FF91EF919F918F9123
:1000C0000F900FBE0F901F9018951F920F920FB6B2
:1000D0000F9211248F939F93EF93FF939091E000E1
:1000E0008091E100981761F0E091E100EF5FEF731C
:1000F000E093E100F0E0E05AFF4F80818CB901C04D
:100100005598FF91EF919F918F910F900FBE0F9097
:100110001F9018959091E2008091E300981719F4D0
:1001200020E031E010C0E091E300EF5FEF73E09377
:10013000E300F0E0E056FF4F80819091E4001092E0
:10014000E400282F30E0C9010895282F9091E000A5
:100150009F5F9F738091E1009817E1F3E92FF0E032
:10016000E05AFF4F20839093E000559A08958FEF57
:100170008ABB1BBA8DEF84BB15BA82E08BB910BC69
:1001800087E089B988E98AB986E880BD7894A8981B
:100190009091E2008091E3009817D1F3E091E300A1
:1001A000EF5FEF73E093E300F0E0E056FF4F8081F4
:1001B0009091E4009091E4009091E400882311F480
:1001C000A89A01C08BBB999BFECF1BBAA89899999E
:0C01D000FECF0E94A500DCCFF894FFCF0A
:00000001FF
