:100000000C942A000C9447000C9447000C94470071
:100010000C9447000C9447000C9484000C94470007
:100020000C9447000C9447000C9447000C94470034
:100030000C9447000C9447000C9447000C94470024
:100040000C9447000C9447000C9447000C94470014
:100050000C94470011241FBECFE5D4E0DEBFCDBF16
:1000600010E0A0E6B0E0E4E7F1E102C005900D92F7
:10007000AA37B107D9F711E0AAE7B0E001C01D9295
:10008000A831B107E1F70E94DC000C94B8080C9489
:1000900000002FE030E090E02817390711F4C09AF3
:1000A00001C0C098C198C19A215030404FEF2F3FF6
:1000B000340791F7C298C29A0895C09880E0C19819
:1000C000C19A8F5F8031D9F7C298C29A08952FE004
:1000D00030E090E02817390711F4A89A01C0A898D9
:1000E000A998A99A215030404FEF2F3F340791F73C
:1000F000AA98AA9AA89880E0A998A99A8F5F8031B7
:10010000D9F7AA98AA9A08951F920F920FB60F9244
:1001100011240F931F932F933F934F935F936F93EC
:100120007F938F939F93AF93BF93CF93DF93EF937F
:10013000FF9380917A008F5F80937A0080917A009C
:100140008A3011F410927A000E945D00C0E0D0E085
:100150000DE010E080917A0090E0809FF001819F97
:10016000F00D909FF00D1124EC0FFD1FEF56FF4F87
:1001700080818BBB8C2F0E9467002196CD30D105EA
:1001800049F780917A000E9449000E94D406FF91AD
:10019000EF91DF91CF91BF91AF919F918F917F911F
:1001A0006F915F914F913F912F911F910F910F9000
:1001B0000FBE0F901F901895CF93DF930E944E06AD
:1001C000C1E0D0E00E9485080E94F006892BD1F39F
:1001D00080917B0090917C00892B31F010927C0003
:1001E00010927B0080E205C0D0937C00C0937B001E
:1001F00080E10E945D01E6CF20E030E06DE070E03C
:10020000AFEF0FC0FA01E80FF91FEF56FF4FA083C1
:1002100001968D309105B1F72F5F3F4F2A303105A0
:1002200051F080E090E0269FA001279F500D369F5F
:10023000500D1124E7CF089520E030E06DE070E02C
:100240000FC0FA01E80FF91FEF56FF4F1082019619
:100250008D309105B1F72F5F3F4F2A30310551F0B6
:1002600080E090E0269FA001279F500D369F500D03
:100270001124E7CF089540E050E0ADE0B0E012C0B7
:10028000FB01E20FF31FEF56FF4F808180958083C3
:100290002F5F3F4F2D30310599F74F5F5F4F4A3049
:1002A000510551F020E030E04A9FB0014B9F700DA6
:1002B0005A9F700D1124E4CF0895803249F08034A4
:1002C00059F0803111F081E008950E94FC0002C0D5
:1002D0000E941C0180E008950E943B0180E0089587
:1002E0008A3008F055C06032F9F06034B1F1603105
:1002F00009F04EC040E050E0282F30E08DE090E063
:10030000289FB001299F700D389F700D11248FEF29
:10031000FB01E40FF51FEF56FF4F80834F5F5F4FE8
:100320004D305105A9F736C040E050E0282F30E0AD
:100330008DE090E0289FB001299F700D389F700DCF
:100340001124FB01E40FF51FEF56FF4F10824F5FA2
:100350005F4F4D305105A9F71DC040E050E0282FF8
:1003600030E08DE090E0289FB001299F700D389F0C
:10037000700D1124FB01E40FF51FEF56FF4F808134
:10038000809580834F5F5F4F4D30510599F702C0D4
:1003900081E0089580E0089540E050E090E02DE095
:1003A00030E0829FB001839F700D929F700D1124E9
:1003B0008FEFFB01E40FF51FEF56FF4F80834F5F78
:1003C0005F4F4D305105A9F7089540E050E090E0AF
:1003D0002DE030E0829FB001839F700D929F700DE1
:1003E0001124FB01E40FF51FEF56FF4F10824F5F02
:1003F0005F4F4D305105A9F7089540E050E090E07F
:100400002DE030E0829FB001839F700D929F700DB0
:100410001124FB01E40FF51FEF56FF4F80818095FB
:1004200080834F5F5F4F4D30510599F708959AE0F3
:10043000499FA0011124840F70E0982F96959695FE
:1004400096952DE030E0629FF001639FF00D729F62
:10045000F00D1124E90FF11DEF56FF4F90818770C9
:1004600021E030E002C0220F331F8A95E2F7922B81
:10047000908308959AE0499FA0011124840F70E0B1
:10048000982F9695969596952DE030E0629FF00115
:10049000639FF00D729FF00D1124E90FF11DEF56CF
:1004A000FF4F9081877021E030E002C0220F331FA0
:1004B0008A95E2F720952923208308959AE0499FA1
:1004C000A0011124840F70E0982F9695969596952B
:1004D0002DE030E0629FF001639FF00D729FF00D00
:1004E0001124E90FF11DEF56FF4F9081877021E035
:1004F00030E002C0220F331F8A95E2F792279083E3
:1005000008958A30A0F46A3090F44A3080F42032A2
:1005100039F0203441F0203151F40E94170205C017
:100520000E943A0202C00E945E0280E0089581E0CB
:100530000895CF92DF92EF92FF920F931F93CF9384
:10054000DF93D62EF42E622F402F782F8AE0C82E0C
:1005500001E010E0CDE0D0E029C05C9DC001112495
:10056000870F982F9770202F01C0220F9A95EAF7D6
:100570003D2D869586958695A82FB0E011C0832FD6
:1005800090E08C9FF0018D9FF00D9C9FF00D112449
:10059000EA0FFB1FEF56FF4F8081822B80833F5F66
:1005A000431768F75F5FE516C0F67F5F671710F0C7
:1005B0005F2DF9CFDF91CF911F910F91FF90EF90B9
:1005C000DF90CF900895BF92CF92DF92EF92FF928B
:1005D0000F931F93CF93DF93C62ED42EF22E602F4E
:1005E000782F9AE0B92E01E010E0CDE0D0E02DC0E8
:1005F0005B9DC0011124272F280F822F8770F801DF
:1006000002C0EE0FFF1F8A95E2F74E2F40953C2D5A
:10061000269526952695A22FB0E011C0832F90E055
:100620008C9FF0018D9FF00D9C9FF00D1124EA0F1F
:10063000FB1FEF56FF4F8081842380833F5F63174A
:1006400068F75F5FE516A0F67F5FF71610F05D2D87
:10065000F9CFDF91CF911F910F91FF90EF90DF9035
:10066000CF90BF900895CF92DF92EF92FF920F93B9
:100670001F93CF93DF93D62EF42E622F402F782F27
:100680002AE0C22E01E010E0CDE0D0E029C05C9D60
:10069000C0011124870F982F9770202F01C0220FBF
:1006A0009A95EAF73D2D869586958695A82FB0E018
:1006B00011C0832F90E08C9FF0018D9FF00D9C9FC7
:1006C000F00D1124EA0FFB1FEF56FF4F80818227A8
:1006D00080833F5F431768F75F5FE516C0F67F5F73
:1006E000671710F05F2DF9CFDF91CF911F910F9118
:1006F000FF90EF90DF90CF900895CF92EF920F93FD
:100700003E2D9C2D8A30F0F46A30E0F44A30D0F46B
:100710002A30C0F40A30B0F43A30A0F4281790F030
:10072000061780F0903239F0903449F0903151F44E
:100730000E94990202C00E94E30280E004C00E946D
:100740003303FBCF81E00F91EF90CF9008957F921C
:100750008F929F92AF92BF92CF92DF92EF92FF92D1
:100760000F931F93A82ED62E842E122FF02EBE2C60
:1007700089E08A1508F442C0861708F43FC0841740
:10078000E8F12A30D8F58017C8F18E15B8F12A158E
:10079000A8F1061798F18A2D0D2D0E947D03813056
:1007A00069F18A2D6F2D482D212F0F2D0E947D0379
:1007B000813021F19D2C9394FA948A2D692D482D36
:1007C000212F0F2DE82C0E947D038A2D692D4B2DA2
:1007D000212FEB2C0E947D03D82CD394BA94812F27
:1007E000692D4D2D212FEB2C0E947D038A2D692D23
:1007F0004D2D2A2D0E947D0380E001C081E01F91D4
:100800000F91FF90EF90DF90CF90BF90AF909F90AF
:100810008F907F9008952F923F924F925F926F92A8
:100820007F928F929F92AF92BF92CF92DF92EF9280
:10083000FF920F931F93DF93CF93CDB7DEB76697E9
:100840000FB6F894DEBF0FBECDBF8B876C874D8788
:10085000CE86482E5524862E9924642E772430E0A7
:100860002419350910E008191909FF24E618F708BA
:1008700037FD05C081E090E09A87898704C0EFEFDB
:10088000FFEFFA87E9873E8B2D8B37FF05C0309548
:1008900021953F4F3E8B2D8B17FD05C021E030E0A9
:1008A00038872F8304C08FEF9FEF98878F8317FFC0
:1008B00003C0109501951F4FF7FC05C0E1E0F0E083
:1008C000FE83ED8304C02FEF3FEF3E832D83F7FEC1
:1008D00004C0F094E194F108F3948D899E89880F07
:1008E000991F9C838B83F801EE0FFF1FFA83E98326
:1008F0001701220C331C2D893E89201731070CF477
:100900004BC02E153F050CF447C07F01E21AF30AD5
:100910008101021B130BAA24BB24CC24DD249B855C
:10092000892F90E09C8B8B8B2DC08B858C0D682D37
:10093000462D2E850E948102813009F4DDC01E14EF
:100940001F0444F4EF81F8858E0E9F1E2B813C819D
:10095000E21AF30A1016110644F48D819E81680E86
:10096000791EEB81FC810E1B1F0B29813A81E20E5F
:10097000F31E020D131D0894A11CB11C89859A85D4
:10098000C80ED91E4B885C884C0C5D1CED89FE8915
:10099000AE16BF0654F2A7C02D893E890217130771
:1009A0000CF454C00E151F050CF450C0EB80FC80F5
:1009B000E01AF10AC101801B910B9E8B8D8BAA243A
:1009C000BB24CC24DD24FC85EF2FF0E0FA8BE98BEF
:1009D00035C06C856C0D842D462D2E850E948102BC
:1009E000813009F489C01E141F0444F429853A8516
:1009F000420E531E89819A81E81AF90AED89FE890F
:100A00001E161F0654F42D813E81620E731E8981CD
:100A10009A81E81BF90BFE8BED8BEB81FC81EE0ECE
:100A2000FF1E2D893E89220D331D3E8B2D8B089490
:100A3000A11CB11C8F819885C80ED91E89889A88FF
:100A40008C0C9D1CA016B10624F24DC009811A81A0
:100A50000E191F09EB81FC81EE19FF09FE8BED8B4E
:100A6000AA24BB24CC24DD243D85232F30E0388B01
:100A70002F8732C04D854C0D842D682D2E850E9408
:100A800081028130C9F11016110634F48F819885E6
:100A9000880E991E02191309ED89FE891E161F067C
:100AA00044F429853A85420E531EE219F309FE8B60
:100AB000ED8B89819A81080F191FED89FE892B81A1
:100AC0003C81E20FF31FFE8BED8B0894A11CB11C3F
:100AD0008D819E81C80ED91E6F8478886C0C7D1C18
:100AE000AE14BF043CF2842D682D462D2E850E9445
:100AF000810290E0813009F491E0892F66960FB66B
:100B0000F894DEBF0FBECDBFCF91DF911F910F9143
:100B1000FF90EF90DF90CF90BF90AF909F908F901D
:100B20007F906F905F904F903F902F9008958F929D
:100B30009F92AF92BF92CF92DF92EF92FF920F936C
:100B40001F93F82ED62E142FB22EA02E9E2C89E0A5
:100B50008F1508F480C0861708F47DC04A3008F06D
:100B60007AC0821708F477C0801708F474C08E1515
:100B700008F471C02F1508F46EC0061708F46BC096
:100B80008F2D2F2D0D2D0E940B04813009F463C091
:100B90008F2D6D2D412F2B2DE12E0E940B048130C6
:100BA00009F459C08F2D6D2D492D2B2DE92C0E9454
:100BB0000B04813009F44FC08B2D6D2D412F2B2D4F
:100BC0000E940B04813009F446C08F2D6A2D412FFD
:100BD0002F2D0A2D0E940B048130E9F18F2D6A2DF3
:100BE000412F2B2DE12E0E940B048130A1F18F2D7E
:100BF0006A2D492D2B2DE92C0E940B04813059F1CF
:100C00008B2D6A2D412F2B2D0E940B04813019F161
:100C10008F2D6D2D412F2F2DE12E0E940B04813041
:100C2000D1F08B2D6D2D412F2B2D0E940B04813087
:100C300091F08F2D6D2D492D2F2DE92C0E940B0445
:100C4000813049F08B2D6D2D492D2B2D0E940B04E9
:100C500090E0813009F491E0892F1F910F91FF906E
:100C6000EF90DF90CF90BF90AF909F908F900895BE
:100C70001F930E945D00A89880E0A998A99A8F5FB1
:100C80008031D9F7AA98AA9A1BBA10E0812F0E9446
:100C900067001F5F1031D1F71F9108952FEF2ABB16
:100CA00097EF97BB8FEE84BB11BA2BBB98BB87EC39
:100CB00085BB12BA0E9438060E94C8060E948D06A3
:100CC0000E94450720E030E06DE070E0A1E00FC039
:100CD000FA01E80FF91FEF56FF4FA08301968D3000
:100CE0009105B1F72F5F3F4F2A30310551F080E079
:100CF00090E0269FA001279F500D369F500D112494
:100D0000E7CF1FBC89E08EBD82E58BBD88E08ABD40
:100D100080E189BF7894AB9A08958EE080938D002E
:100D200080918C001092170110927D00089590918F
:100D3000170180917D00981710F0E0E00BC0E09162
:100D40001701F0E0E258FF4FE081809117018F5FBB
:100D5000809317018E2F08951092170110927D0035
:100D60000895482F20917D0080918D0030E090E023
:100D70000197281739075CF4E0917D00F0E0E25814
:100D8000FF4F408380917D008F5F80937D000895A9
:100D900086B380938C00109213011092140110926C
:100DA000150110921601089580911301909114017C
:100DB000A0911501B09116018F3F2FEF92072FEFF1
:100DC000A2072FEFB20759F00196A11DB11D809324
:100DD000130190931401A0931501B0931601089587
:100DE00026B380918C0090E030E08227932784FF27
:100DF0001EC08091130190911401A0911501B09132
:100E000016018F5F9F4FAF4FBF4F89F486B380931A
:100E10008C0010921301109214011092150110927F
:100E2000160186B382958F7080958170089580E059
:100E3000089526B380918C0090E030E082279327BC
:100E400084FF21C08091130190911401A09115019C
:100E5000B09116018F5F9F4FAF4FBF4FA1F486B384
:100E600080938C00109213011092140110921501BE
:100E70001092160186B390E024E0969587952A9506
:100E8000E1F78170089580E008951092900010922B
:100E90008E000895CF92DF92EF92FF920F931F93EF
:100EA000DF93CF93CDB7DEB72E970FB6F894DEBFA2
:100EB0000FBECDBF082F80918E00882359F5102FCB
:100EC000115611F480E103C0113021F480E20E9438
:100ED0005D010AC1123011F480E4F9CF1631B9F086
:100EE000173109F401C1183109F4FEC0193109F4B0
:100EF000FBC0802F8456833108F0F8C00E94AC06F6
:100F0000E12FF0E0E05AFF4F808180939000009342
:100F10008E00ECC080919000882341F08091900079
:100F2000815080939000802F0E94B10680919000A4
:100F3000882309F0DBC020918E002156822F63E0C8
:100F40000E94AC08F92E61E0961749F0961720F040
:100F500072E0971749F406C060E1F62E05C050E232
:100F6000F52E02C040E4F42E2F3058F42C3008F057
:100F700049C0293060F52630B8F4233008F4B4C0F5
:100F80000CC0253130F4CE010196223108F06EC03C
:100F900054C0253109F0A8C082C00E949706805332
:100FA0006F2D0E947001A0C00E9497068053898314
:100FB0000E94970680538A830E949706482F4053C9
:100FC0004B8389816A812F2D0E9481028DC08E0101
:100FD0000F5F1F4F37E0C32ED12CCC0EDD1E0E94B9
:100FE00097068053F80181938F01EC15FD05B9F741
:100FF00089816A814B812C810D81EE80CF2C0E94EA
:10100000A70372C08E010F5F1F4F27E0C22ED12CA5
:10101000CC0EDD1E0E9497068053F80181938F014C
:10102000EC15FD05B9F789816A814B812C810D8111
:10103000EE80CF2C0E947D0357C08C0197E0C92E13
:10104000D12CCC0EDD1E0E9497068053F8018193AF
:101050008F01EC15FD05B9F789816A814B812C81DF
:101060000D81EE80CF2C0E9497053EC08C0187E059
:10107000C82ED12CCC0EDD1E0E9497068053F8019D
:1010800081938F01EC15FD05B9F789816A814B8148
:101090002C810D81EE80CF2C0E940B0425C00E9474
:1010A0009706282F22952F7030E08F704DE050E08A
:1010B000B901649F9001659F300D749F300D11241C
:1010C000F901EF56FF4F848700E010E079010E949C
:1010D0009706F701E00FF11FEF56FF4F80830F5F78
:1010E0001F4F0C30110599F710928E002E960FB6F7
:1010F000F894DEBF0FBECDBFCF91DF911F910F914E
:10110000FF90EF90DF90CF900895AD9B07C080B324
:10111000882309F59C991FC0AD98089580B3882352
:10112000A1F020B380B3821711F49FEF01C090E0CB
:1011300080B3821390E080B3821769F4992359F049
:10114000822F0E944A07AD9A08959C9B04C080E0BC
:101150000E944A07AD9A0895991B79E004C0991F2F
:10116000961708F0961B881F7A95C9F78095089501
:04117000F894FFCF21
:101174000000000101010303030606060606060635
:0A11840006060606060D0000000036
:00000001FF
